:020000040800F2
:100000000050002071B30008A5A40008FD98000866
:10001000B1A40008B7A40008BDA4000800000000B7
:10002000000000000000000000000000E16900087E
:10003000C3A4000800000000916B0008CFA40008D2
:10004000B9B30008B9B30008B9B30008B9B30008E0
:10005000B9B30008B9B30008B9B30008B9B30008D0
:10006000B9B30008B9B30008B9B30008B9B30008C0
:10007000DDA40008F1A40008B9B30008B9B3000872
:10008000B9B30008B9B30008B9B30008B9B30008A0
:1000900005A50008B9B30008B9B30008B9B3000852
:1000A000B9B30008B9B30008B9B30008B9B3000880
:1000B00019A50008B9B30008B9B30008B9B300081E
:1000C000B9B30008B9B30008B9B30008B9B3000860
:1000D000B9B30008B9B30008B9B30008B9B3000850
:1000E000B9B30008B9B30008B9B3000800000000B4
:1000F0000000000000000000000000000000000000
:0C01000000000000000000005FF808F1A3
:1001100010B5054C237833B9044B13B10448AFF341
:1001200000800123237010BDCC01002000000000DE
:10013000DCC9000808B5034B1BB103490348AFF302
:10014000008008BD00000000D0010020DCC90008CC
:10015000034613F8012B002AFBD1181A0138704707
:1001600080B500AF084A084B1B6843F010031360CA
:10017000032000F007F900200AF03CF909F0F6FF2F
:100180000023184680BD00BF0020024080B400AFAD
:10019000044B1B680133034A136000BFBD4680BC9B
:1001A000704700BF0C21002080B400AF024B1B68D9
:1001B0001846BD4680BC70470C21002080B584B035
:1001C00000AF7860FFF7F0FFB8607B68FB60FB680A
:1001D000B3F1FF3F02D0FB680133FB6000BFFFF7C4
:1001E000E3FF0246BB68D21AFB689A42F7D300BF0E
:1001F0001037BD4680BD000080B485B000AF786088
:100200007B6803F00703FB600C4BDB68BB60BA68DC
:100210004FF6FF031340BB60FB681A02BB68134331
:1002200043F0BF6343F40033BB60044ABB68D36050
:1002300000BF1437BD4680BC704700BF00ED00E032
:1002400080B400AF044BDB681B0A03F007031846B9
:10025000BD4680BC704700BF00ED00E080B483B0B5
:1002600000AF0346FB71084997F907305B09FA793B
:1002700002F01F02012000FA02F241F8232000BF21
:100280000C37BD4680BC704700E100E080B483B00D
:1002900000AF03463960FB7197F90730002B0BDA8A
:1002A0000D49FB7903F00F03043B3A68D2B2120107
:1002B000D2B20B441A7609E0084997F907303A6838
:1002C000D2B21201D2B20B4483F8002300BF0C3724
:1002D000BD4680BC704700BF00ED00E000E100E0DB
:1002E00080B489B000AFF860B9607A60FB6803F051
:1002F0000703FB61FB69C3F10703042B28BF042339
:10030000BB61FB690433062B02D9FB69033B00E0A8
:1003100000237B610122BB6902FA03F35A1EBB680A
:100320001A407B699A4001217B6901FA03F3591E47
:100330007B680B40134318462437BD4680BC70478A
:1003400080B582B000AF78607B68013BB3F1807FFD
:1003500001D301230FE00A4A7B68013B53600F2160
:100360004FF0FF30FFF792FF054B00229A60044BDD
:1003700007221A60002318460837BD4680BD00BF1B
:1003800010E000E080B582B000AF78607868FFF7D9
:1003900033FF00BF0837BD4680BD80B586B000AFD3
:1003A0000346B9607A60FB7300237B61FFF748FF67
:1003B00078617A68B9687869FFF792FF024697F921
:1003C0000F3011461846FFF761FF00BF1837BD46D2
:1003D00080BD80B582B000AF0346FB7197F907304E
:1003E0001846FFF73BFF00BF0837BD4680BD80B50C
:1003F00082B000AF78607868FFF7A2FF0346184626
:100400000837BD4680BD000080B483B000AF78607F
:100410007B68042B06D1094A084B1B6843F0040390
:10042000136005E0054A054B1B6823F004031360C5
:1004300000BF0C37BD4680BC704700BF10E000E035
:1004400080B485B000AF78600023FB607B68002B30
:1004500001D101234FE07B681B681A46284B1344E7
:10046000284AA2FB03231B099A007B681A647B6855
:10047000254ADA637B68022283F821207B681B68A7
:100480001B68FB60FB6823F47F5323F03003FB60A1
:100490007B685A687B689B681A437B68DB681A43F1
:1004A0007B681B691A437B685B691A437B689B699D
:1004B0001A437B68DB691343FA681343FB607B686C
:1004C0001B68FA681A607B6800229A627B680022C7
:1004D000DA627B6800221A637B6800225A637B68B9
:1004E00000229A637B68012283F821207B68002226
:1004F00083F82020002318461437BD4680BC70477F
:10050000F8FFFDBFCDCCCCCC0000024080B483B05E
:1005100000AF78607B68002B01D101233AE07B6853
:100520001B687A681268126822F001021A607B6800
:100530001B6800221A607B681B6800225A607B6877
:100540001B6800229A607B681B680022DA607B6867
:100550001B681A46124B1344124AA2FB03231B09C1
:100560009A007B681A647B680F4ADA637B68DB6BEE
:100570007A68126C012101FA02F25A607B6800224B
:100580009A637B68002283F821207B68002283F82D
:100590002020002318460C37BD4680BC704700BFA2
:1005A000F8FFFDBFCDCCCCCC0000024080B584B0BC
:1005B00000AF78607B68DB6B1B68FB607B681B6847
:1005C0001B68BB607B681B6C04229A40FB6813406D
:1005D000002B55D0BB6803F00403002B50D07B6880
:1005E0001B681B6803F02003002B07D17B681B6886
:1005F0007A681268126822F004021A606D4A7B68F9
:100600001B6819466C4B99422ED07B681B681946B3
:100610006A4B994226D07B681B681946684B994201
:100620001DD07B681B681946664B994214D07B68C5
:100630001B681946644B99420BD07B681B681946AE
:10064000624B994202D14FF480030EE04FF0806379
:100650000BE04FF4802308E04FF4804305E04FF4B3
:10066000806302E0402300E0042353607B68DB6A80
:10067000002B00F09A807B68DB6A7868984794E0EA
:100680007B681B6C02229A40FB681340002B5CD0F5
:10069000BB6803F00203002B57D07B681B681B6804
:1006A00003F02003002B0BD17B681B687A6812686B
:1006B000126822F00A021A607B68012283F8212066
:1006C0003C4A7B681B6819463B4B99422ED07B689D
:1006D0001B681946394B994226D07B681B6819461E
:1006E000374B99421DD07B681B681946354B9942A0
:1006F00014D07B681B681946334B99420BD07B683A
:100700001B681946314B994202D14FF400130EE099
:100710004FF000730BE04FF4003308E04FF4005348
:1007200005E04FF4007302E0202300E00223536051
:100730007B68002283F820207B689B6A002B34D0E2
:100740007B689B6A786898472FE07B681B6C08225F
:100750009A40FB681340002B28D0BB6803F00803C5
:10076000002B23D07B681B687A681268126822F01D
:100770000E021A607B68DB6B7A68126C012101FA49
:1007800002F25A607B6801229A637B68012283F837
:1007900021207B68002283F820207B681B6B002BC4
:1007A00004D07B681B6B7868984700BF00BF103788
:1007B000BD4680BD00000240080002401C0002400F
:1007C0003000024044000240580002406C000240E9
:1007D00080B48BB000AF786039600023FB610023E8
:1007E000BB6100237B6100233B6200233B6100234C
:1007F0007B6227E101227B6A02FA03F3FB613B681B
:100800001A68FB691340BB61BA69FB699A4240F000
:1008100016813B685B68122B34D0122B0DD8022B4B
:100820002BD0022B04D8002B31D0012B1CD048E058
:10083000032B43D0112B1BD043E0874A934226D091
:10084000854A934206D8854A934220D0844A9342EF
:100850001DD036E0834A934219D0834A934216D082
:10086000824A934213D02CE03B68DB683B6228E06D
:100870003B68DB6804333B6223E03B68DB6808339A
:100880003B621EE03B68DB680C333B6219E03B686F
:100890009B68002B02D104233B6212E03B689B68FB
:1008A000012B05D108233B627B68FA691A6108E0D5
:1008B00008233B627B68FA695A6102E000233B62CD
:1008C00000BFBB69FF2B01D87B6801E07B68043364
:1008D000FB60BB69FF2B02D87B6A9B0002E07B6A4E
:1008E000083B9B003B61FB681A680F213B6901FADA
:1008F00003F3DB431A40396A3B6901FA03F31A43F5
:10090000FB681A603B685B6803F08053002B00F0C3
:100910009680574A564B9B6943F001039361544BB1
:100920009B6903F00103BB60BB68524A7B6A9B086A
:10093000023352F823307B617B6A03F003039B0090
:100940000F2202FA03F3DB437A6913407B617B6871
:10095000494A934213D07B68484A93420DD07B6842
:10096000474A934207D07B68464A934201D103230A
:1009700006E0042304E0022302E0012300E0002358
:100980007A6A02F00302920093407A6913437B6112
:1009900038497B6A9B0802337A6941F823203B6817
:1009A0005B6803F48033002B06D03749364B1A6856
:1009B000BB6913430B6006E03349334B1A68BB69CC
:1009C000DB4313400B603B685B6803F40033002B90
:1009D00006D02D492C4B5A68BB6913434B6006E087
:1009E0002949294B5A68BB69DB4313404B603B687C
:1009F0005B6803F48013002B06D02349224B9A68CE
:100A0000BB6913438B6006E01F491F4B9A68BB69A3
:100A1000DB4313408B603B685B6803F40013002BDF
:100A200006D01949184BDA68BB691343CB6006E05E
:100A30001549154BDA68BB69DB431340CB607B6A11
:100A400001337B627B6A0F2B7FF6D4AE00BF2C375D
:100A5000BD4680BC704700BF00002110000011108F
:100A600000001210000031100000321000002210AF
:100A7000001002400000014000080140000C01404D
:100A800000100140001401400004014080B489B00E
:100A900000AF786039600023FB610023BB61002355
:100AA0007B6100233B619AE00122FB699A403B682D
:100AB0001340BB61BB69002B00F08E80BB69FF2B2C
:100AC00001D87B6801E07B680433FB60BB69FF2BC6
:100AD00002D8FB699B0002E0FB69083B9B003B617D
:100AE000FB681A680F213B6901FA03F3DB431A40E4
:100AF00004213B6901FA03F31A43FB681A607B681F
:100B0000DA68BB69DB431A407B68DA603A4AFB6902
:100B10009B08023352F823307B61FB6903F0030327
:100B20009B000F2202FA03F37A6913407B617B6812
:100B3000324A934213D07B68314A93420DD07B688E
:100B4000304A934207D07B682F4A934201D1032356
:100B500006E0042304E0022302E0012300E0002376
:100B6000FA6902F00302920003FA02F27B699A42E8
:100B700032D1FB6903F003039B000F2202FA03F357
:100B80007B611D48FB699B081B49FA699208023288
:100B900051F822107A69D2430A40023340F82320E8
:100BA0001A491A4B1A68BB69DB4313400B6017499B
:100BB000164B5A68BB69DB4313404B601349134B18
:100BC0009A68BB69DB4313408B6010490F4BDA68AE
:100BD000BB69DB431340CB60FB690133FB613A68BF
:100BE000FB6922FA03F3002B7FF45EAF00BF2437CA
:100BF000BD4680BC704700BF0000014000080140B6
:100C0000000C0140001001400014014000040140AC
:100C100080B483B000AF78600B467B8013467B7056
:100C20007B78002B03D07A887B681A6103E07B888D
:100C30001A047B681A6100BF0C37BD4680BC704740
:100C400080B483B000AF78600B467B807B68DA6845
:100C50007B885A407B68DA6000BF0C37BD4680BC99
:100C60007047F0B58BB006AF78600023FB607B68FF
:100C7000002B01D10123CAE07B6893F82934DBB251
:100C8000002B06D17B68002283F82824786809F0BD
:100C9000ABFD7B68032283F829247B681B68184618
:100CA00002F0F4FD7B681B683B607E686D4606F1D0
:100CB00010040FCC0FC523682B60331D0ECB386892
:100CC00002F0BAFD7B681B680021184602F0FAFDAD
:100CD0000023FB6037E07A68FB685B01134429332B
:100CE00001221A70FB68D9B27A68FB685B01134471
:100CF00028330A461A70FB6899B27A68FB685B0170
:100D0000134434330A461A807A68FB685B01134443
:100D10002B3300221A707A68FB685B011344383366
:100D200000221A607A68FB685B0113443C3300229E
:100D30001A607A68FB6802335B01134400221A6070
:100D4000FB680133FB60FB680E2BC4D90023FB60FA
:100D50003CE07A68FB685B01134403F2292300221C
:100D60001A70FB68D9B27A68FB685B01134403F51B
:100D70000A730A461A70FB6899B27A68FB685B01CD
:100D8000134434330A461A807A68FB685B011344C3
:100D900003F22B2300221A707A68FB685B0113446C
:100DA00003F50E7300221A607A68FB685B01134436
:100DB00003F50F7300221A607A68FB6812335B0137
:100DC000134400221A60FB680133FB60FB680E2BA2
:100DD000BFD97B681B683B607E686D4606F11004D6
:100DE0000FCC0FC523682B60331D0ECB386802F083
:100DF00075FD7B68002283F824207B68012283F83C
:100E000029247B681B68184603F0EDFB0023184675
:100E10001437BD46F0BD80B582B000AF78607B6806
:100E200093F82834012B01D1022316E07B680122BC
:100E300083F828240121786809F0D1FF7B681B68BA
:100E4000184603F0C6FB7B681B68184602F004FDD9
:100E50007B68002283F82824002318460837BD4603
:100E600080BD80B582B000AF78607B6893F828348D
:100E7000012B01D1022317E07B68012283F828248B
:100E80007B681B68184602F001FD7B681B681846EA
:100E900003F076FB7B681B68184603F0A4FB7B68B5
:100EA000002283F82824002318460837BD4680BD59
:100EB00080B582B000AF78607B681B68184603F08D
:100EC0009CFB034603F40043B3F5004F02D178685E
:100ED00000F07EFA7B681B68184603F08EFB034621
:100EE00003F48063B3F5806F12D17B681B687A6866
:100EF0001268B2F8442092B222F4806292B2A3F84F
:100F00004420786809F0E5FC0021786800F0D2F808
:100F10007B681B68184603F070FB034603F48043AC
:100F2000B3F5804F0BD17B681B687A681268B2F802
:100F3000442092B222F4804292B2A3F844207B680B
:100F40001B68184603F059FB034603F40053B3F53E
:100F5000005F0BD17B681B687A681268B2F8442086
:100F600092B222F4005292B2A3F844207B681B682C
:100F7000184603F042FB034603F48053B3F5805F49
:100F800026D17B681B687A681268B2F8402092B25A
:100F900022F0040292B2A3F840207B681B687A68B2
:100FA0001268B2F8402092B222F0080292B2A3F87E
:100FB0004020786809F0CAFC7B681B687A68126870
:100FC000B2F8442092B222F4805292B2A3F84420A4
:100FD0007B681B68184603F010FB034603F40063AC
:100FE000B3F5006F31D17B681B687A681268B2F87C
:100FF000402092B242F0080292B2A3F840207B68EF
:101000001B687A681268B2F8442092B222F4006237
:1010100092B2A3F844207B681B687A681268B2F821
:10102000402092B242F0040292B2A3F840207B68C2
:101030001B68184603F0E1FA034603F48053B3F546
:10104000805F02D0786809F067FC7B681B681846EF
:1010500003F0D3FA034603F40073B3F5007F0ED117
:101060007B681B687A681268B2F8442092B222F456
:10107000007292B2A3F84420786809F01CFC7B68E7
:101080001B68184603F0B9FA034603F48073B3F5FE
:10109000807F0BD17B681B687A681268B2F84420A5
:1010A00092B222F4807292B2A3F8442000BF0837B3
:1010B000BD4680BD80B582B000AF78600B46FB7046
:1010C0007B6893F82834012B01D1022313E07B685D
:1010D000012283F828247B68FA7883F824207B682F
:1010E0001B68FA781146184603F060FA7B68002204
:1010F00083F82824002318460837BD4680BD80B5F4
:1011000084B000AF7860084611461A460346FB706B
:101110000B463B801346BB700023FB720023FB6031
:1011200097F90330002B08DAFB7803F07F035B01AB
:1011300028337A681344FB6008E0FB7803F07F03F0
:101140005B0103F50A737A681344FB60FB7803F0D4
:101150007F03DAB2FB681A7097F90330DBB2DB0960
:10116000DBB21A46FB685A703A88FB681A61FB6862
:10117000BA78DA707B6893F82834012B01D1022306
:101180000EE07B68012283F828247B681B68F968DD
:10119000184602F0C7FB7B68002283F82824FB7AFC
:1011A00018461037BD4680BD80B586B000AFF860E8
:1011B0007A603B600B46FB7200237B61FB7A03F095
:1011C0007F035B0103F50A73FA6813447B617B6953
:1011D0007A685A617B693A689A617B690022DA61B0
:1011E0007B6900225A70FB7A03F07F03DAB27B69D5
:1011F0001A70FB7A03F07F03002B06D1FB681B6893
:101200007969184602F050FE05E0FB681B687969B1
:10121000184602F049FE002318461837BD4680BD27
:1012200080B586B000AFF8607A603B600B46FB7219
:1012300000237B61FB7A03F07F035B012833FA68AC
:1012400013447B617B697A685A617B693A689A6169
:101250007B690022DA617B6901225A70FB7A03F014
:101260007F03DAB27B691A70FB7A03F07F03002BED
:1012700006D1FB681B687969184602F015FE05E087
:10128000FB681B687969184602F00EFE00231846B9
:101290001837BD4680BD80B584B000AF78600B467E
:1012A000FB700023FB6097F90330002B08DAFB7812
:1012B00003F07F035B0128337A681344FB6006E088
:1012C000FB785B0103F50A737A681344FB60FB68E3
:1012D00001229A70FB7803F07F03DAB2FB681A7080
:1012E00097F90330DBB2DB09DBB21A46FB685A70B0
:1012F0007B6893F82834012B01D102231CE07B6822
:10130000012283F828247B681B68F968184603F0DB
:101310004DF8FB7803F07F03002B08D17B681A6837
:101320007B6803F22C431946104603F077F97B687B
:10133000002283F82824002318461037BD4680BDBC
:1013400080B584B000AF78600B46FB700023FB6073
:1013500097F90330002B08DAFB7803F07F035B0179
:1013600028337A681344FB6006E0FB785B0103F5E1
:101370000A737A681344FB60FB6800229A70FB785A
:1013800003F07F03DAB2FB681A7097F90330DBB21F
:10139000DB09DBB21A46FB685A707B6893F8283485
:1013A000012B01D102230EE07B68012283F828245F
:1013B0007B681B68F968184603F058F87B680022C0
:1013C00083F82824002318461037BD4680BD00004E
:1013D00090B589B000AF78600023BB610023FB8328
:1013E0000023FB750023FB810023BB8108E3FB89FD
:1013F0009BB2DBB203F00F03FB75FB7D002B40F0CB
:101400002A81FB899BB203F01003002B4DD17B682E
:101410001A687B681B681B889BB223F4E14323F0A6
:1014200070039BB213807B682833BB617B681B68A9
:10143000B3F850309BB21A46BB691B78DB001344EB
:1014400002335B007A681268134403F580631B68FB
:101450009BB2C3F30902BB69DA61BB695A69BB6914
:10146000DB691A44BB695A610021786809F00CFAFB
:101470007B6893F82430DBB2002B00F0C182BB699B
:101480009B69002B40F0BC827B681B687A6892F8ED
:101490002420D2B262F07F02D2B292B2A3F84C20E2
:1014A0007B68002283F82420AAE27B6803F50A7394
:1014B000BB617B681B681B889BB2BB81BB899BB2ED
:1014C00003F40063002B31D07B681B68B3F8503005
:1014D0009BB21A46BB691B78DB00134406335B00E2
:1014E0007A681268134403F580631B689BB2C3F3E8
:1014F0000902BB69DA617B6818687B6803F22C41DA
:10150000BB699A88BB69DB699BB203F0D8F87B683A
:101510001A687B681B681B8899B240F68F730B4072
:101520009BB21380786809F085F969E2BB899BB2A8
:101530001BB2002B80F264827B681A687B681B6890
:101540001B8899B240F68F730B409BB213807B6867
:101550001B68B3F850309BB21A46BB691B78DB009E
:10156000134406335B007A681268134403F5806302
:101570001B689BB2C3F30902BB69DA61BB69DB6913
:10158000002B11D07B681868BB695969BB699A88C0
:10159000BB69DB699BB203F092F8BB695A69BB690E
:1015A000DB691A44BB695A610021786809F054F973
:1015B0007B681B68B3F850309BB206335B007A68D7
:1015C0001268134403F580633B61BB691B693E2BC2
:1015D00018D9BB691B695B09BB83BB691B6903F035
:1015E0001F03002B02D1BB8B013BBB83BB8B9B0238
:1015F0009BB26FEA43436FEA53439BB21A463B697F
:101600001A6012E0BB691B695B08BB83BB691B697D
:1016100003F00103002B02D0BB8B0133BB83BB8BD8
:101620009B029BB21A463B691A607B681B681B8849
:101630009BB223F4804323F070039CB284F4805364
:101640009CB284F400539CB27B681A68984B234385
:101650009BB21380D4E17B681B681A46FB7D9B001C
:1016600013441B889BB2BB81BB899BB21BB2002B6E
:1016700080F2D0807B681B681A46FB7D9B001A4471
:101680007B681B681946FB7D9B000B441B8899B245
:1016900040F68F730B409BB21380FB7D5B0103F51B
:1016A0000A737A681344BB61BB699B7A002B22D111
:1016B0007B681B68B3F850309BB21A46BB691B7835
:1016C000DB00134406335B007A681268134403F5A9
:1016D00080631B689BB2C3F30903FB83FB8B002B66
:1016E00073D07B681868BB695969BB699A88FB8BA2
:1016F00002F0E5FF69E07B681B681A46BB691B784E
:101700009B0013441B889BB203F48043002B22D020
:101710007B681B68B3F850309BB21A46BB691B78D4
:10172000DB00134402335B007A681268134403F54C
:1017300080631B689BB2C3F30903FB83FB8B002B05
:101740002BD07B681868BB695969BB69DA88FB8B49
:1017500002F0B5FF21E07B681B68B3F850309BB204
:101760001A46BB691B78DB00134406335B007A68BA
:101770001268134403F580631B689BB2C3F309032B
:10178000FB83FB8B002B08D07B681868BB69596909
:10179000BB691A89FB8B02F092FF7B681B681A46B3
:1017A000BB691B789B001A447B681B681946BB69A0
:1017B0001B789B000B441B8899B240F60F730B40BB
:1017C00099B23C4B0B439BB21380BB69DA69FB8B2C
:1017D0001A44BB69DA61BB695A69FB8B1A44BB695D
:1017E0005A61BB699B69002B04D0FA8BBB691B69EA
:1017F0009A4206D2BB691B781946786809F02CF822
:1018000008E0BB691978BB695A69BB699B6978684C
:10181000FFF7CAFCBB899BB203F08003002B00F0EA
:10182000EF80FB7D5B0128337A681344BB617B68E2
:101830001B681A46FB7D9B001A447B681B6819468F
:10184000FB7D9B000B441B889BB223F4E14323F0F8
:1018500070039BB21380BB699B7A002B2CD17B68F1
:101860001B68B3F850309BB21A46BB691B78DB008B
:10187000134402335B007A681268134403F58063F3
:101880001B689BB2C3F30902BB69DA61BB69DB6900
:10189000002B00F083807B681868BB695969BB69BD
:1018A0009A88BB69DB699BB202F0C3FE76E000BF99
:1018B0008080FFFFC080FFFF7B681B681A46BB6902
:1018C0001B789B0013441B889BB203F04003002B42
:1018D00026D07B681B68B3F850309BB21A46BB69B0
:1018E0001B78DB00134402335B007A6812681344F0
:1018F00003F580631B689BB2C3F30902BB69DA611D
:10190000BB69DB69002B31D07B681868BB695969FA
:10191000BB69DA88BB69DB699BB202F08AFE25E00D
:101920007B681B68B3F850309BB21A46BB691B78C2
:10193000DB00134406335B007A681268134403F536
:1019400080631B689BB2C3F30902BB69DA61BB69A0
:10195000DB69002B0AD07B681868BB695969BB69D1
:101960001A89BB69DB699BB202F063FE7B681B6866
:101970001A46BB691B789B001A447B681B68194692
:10198000BB691B789B000B441B8899B240F60F7310
:101990000B4099B2224B0B439BB213807B681B68B0
:1019A000B3F850309BB21A46BB691B78DB00134476
:1019B00002335B007A681268134403F580631B6886
:1019C0009BB2C3F30902BB69DA61BB695A69BB699F
:1019D000DB691A44BB695A61BB699B69002B06D15C
:1019E000BB691B781946786808F04EFF08E0BB69B0
:1019F0001978BB695A69BB699B697868FFF710FC65
:101A00007B681B68B3F844309BB21A46FA811BB25C
:101A1000002BFFF6ECAC002318462437BD4690BDE2
:101A200080C0FFFF80B487B000AFF8607B600B46DA
:101A30007B8113463B8100237B617B8903F080031C
:101A4000002B08D07B8903F07F035B012833FA6801
:101A500013447B6106E07B895B0103F50A73FA6836
:101A600013447B613B89002B07D17B6900229A726A
:101A70007B689AB27B699A800BE07B6901229A723B
:101A80007B689AB27B69DA807B681B0C9AB27B69AF
:101A90001A81002318461C37BD4680BC70470000E1
:101AA00080B586B000AF786000233B617B681B681F
:101AB00003F00103002B00F08780924B5B6803F07A
:101AC0000C03042B0CD08F4B5B6803F00C03082B2A
:101AD00012D18C4B5B6803F48033B3F5803F0BD19C
:101AE000884B1B6803F40033002B6CD07B685B6869
:101AF000002B68D101232DE27B685B68B3F5803F42
:101B000006D1804A7F4B1B6843F4803313602EE07C
:101B10007B685B68002B0CD17A4A7A4B1B6823F4F4
:101B200080331360774A774B1B6823F4802313605C
:101B30001DE07B685B68B3F5A02F0CD1714A714B37
:101B40001B6843F4802313606E4A6E4B1B6843F49A
:101B5000803313600BE06B4A6A4B1B6823F48033BD
:101B60001360684A674B1B6823F4802313607B680B
:101B70005B68002B13D0FEF717FB386108E0FEF717
:101B800013FB02463B69D31A642B01D90323E1E11D
:101B90005C4B1B6803F40033002BF0D014E0FEF71D
:101BA00003FB386108E0FEF7FFFA02463B69D31AEF
:101BB000642B01D90323CDE1524B1B6803F400339E
:101BC000002BF0D100E000BF7B681B6803F002032C
:101BD000002B63D04B4B5B6803F00C03002B0BD046
:101BE000484B5B6803F00C03082B1CD1454B5B682A
:101BF00003F48033002B16D1424B1B6803F0020321
:101C0000002B05D07B681B69012B01D00123A1E1CA
:101C10003C493C4B1B6823F0F8027B685B69DB00A6
:101C200013430B603AE07B681B69002B20D0364BD6
:101C300001221A60FEF7B8FA386108E0FEF7B4FA3C
:101C400002463B69D31A022B01D9032382E12D4BB3
:101C50001B6803F00203002BF0D02A49294B1B68B4
:101C600023F0F8027B685B69DB0013430B6015E02F
:101C7000254B00221A60FEF797FA386108E0FEF75C
:101C800093FA02463B69D31A022B01D9032361E17F
:101C90001C4B1B6803F00203002BF0D17B681B6810
:101CA00003F00803002B39D07B689B69002B19D007
:101CB000164B01221A60FEF777FA386108E0FEF74A
:101CC00073FA02463B69D31A022B01D9032341E17F
:101CD0000C4B5B6A03F00203002BF0D0012000F0F4
:101CE000FBFA1BE0094B00221A60FEF75DFA38612F
:101CF0000EE0FEF759FA02463B69D31A022B07D9C8
:101D0000032327E1001002400000424280044242C7
:101D1000924B5B6A03F00203002BEAD17B681B68DD
:101D200003F00403002B00F0A6800023FB758B4B0F
:101D3000DB6903F08053002B0DD1884A874BDB69A8
:101D400043F08053D361854BDB6903F08053FB6024
:101D5000FB680123FB75824B1B6803F48073002B27
:101D600018D17F4A7E4B1B6843F480731360FEF7E3
:101D70001BFA386108E0FEF717FA02463B69D31AEE
:101D8000642B01D90323E5E0754B1B6803F48073D2
:101D9000002BF0D07B68DB68012B06D16F4A6F4BBC
:101DA0001B6A43F0010313622DE07B68DB68002BA4
:101DB0000CD16A4A694B1B6A23F001031362674A1C
:101DC000664B1B6A23F0040313621CE07B68DB682C
:101DD000052B0CD1614A614B1B6A43F0040313626B
:101DE0005E4A5E4B1B6A43F0010313620BE05B4AE1
:101DF0005A4B1B6A23F001031362584A574B1B6A64
:101E000023F0040313627B68DB68002B15D0FEF718
:101E1000CBF938610AE0FEF7C7F902463B69D31AED
:101E200041F28832934201D9032393E04B4B1B6A62
:101E300003F00203002BEED014E0FEF7B5F9386191
:101E40000AE0FEF7B1F902463B69D31A41F2883243
:101E5000934201D903237DE0404B1B6A03F0020348
:101E6000002BEED1FB7D012B05D13C4A3B4BDB69BE
:101E700023F08053D3617B68DB69002B69D0374B3B
:101E80005B6803F00C03082B61D07B68DB69022BD5
:101E900046D1344B00221A60FEF786F9386108E01B
:101EA000FEF782F902463B69D31A022B01D90323BC
:101EB00050E02A4B1B6803F00073002BF0D17B68C5
:101EC0001B6AB3F5803F08D12449244B5B6823F497
:101ED00000327B689B6813434B6020481F4B5B6854
:101EE00023F474127B68196A7B685B6A0B431343A3
:101EF00043601C4B01221A60FEF756F9386108E076
:101F0000FEF752F902463B69D31A022B01D903238B
:101F100020E0124B1B6803F00073002BF0D018E098
:101F2000104B00221A60FEF73FF9386108E0FEF717
:101F30003BF902463B69D31A022B01D9032309E07E
:101F4000064B1B6803F00073002BF0D101E0012366
:101F500000E0002318461837BD4680BD001002403F
:101F6000007000406000424280B584B000AF7860ED
:101F700039600023FB60724B1B6803F007023B686B
:101F80009A4210D26E496E4B1B6823F007023B68E1
:101F900013430B606A4B1B6803F007023B689A42CD
:101FA00001D00123C8E07B681B6803F00203002B0B
:101FB00008D06449634B5B6823F0F0027B689B6840
:101FC00013434B607B681B6803F00103002B6AD04E
:101FD0007B685B68012B07D15A4B1B6803F4003305
:101FE000002B15D10123A7E07B685B68022B07D18A
:101FF000544B1B6803F00073002B09D101239BE0B5
:10200000504B1B6803F00203002B01D1012393E026
:102010004C494C4B5B6823F003027B685B681343BD
:102020004B60FEF7C1F8F8607B685B68012B12D14A
:102030000AE0FEF7B9F80246FB68D31A41F288328B
:10204000934201D9032377E03E4B5B6803F00C0316
:10205000042BEED127E07B685B68022B1DD10AE0E0
:10206000FEF7A2F80246FB68D31A41F28832934287
:1020700001D9032360E0334B5B6803F00C03082BAA
:10208000EED110E0FEF790F80246FB68D31A41F259
:102090008832934201D903234EE02A4B5B6803F058
:1020A0000C03002BEED1264B1B6803F007023B68A4
:1020B0009A4210D92249224B1B6823F007023B6841
:1020C00013430B601E4B1B6803F007023B689A42E8
:1020D00001D0012330E07B681B6803F00403002B70
:1020E00008D01849174B5B6823F4E0627B68DB6813
:1020F00013434B607B681B6803F00803002B09D077
:102100001049104B5B6823F460527B681B69DB004D
:1021100013434B6000F01CF801460A4B5B681B0937
:1021200003F00F03084AD35C21FA03F3074A136054
:10213000002008F05FF9002318461037BD4680BD27
:102140000020024000100240D0D4000814010020FA
:1021500090B48AB000AF2A4B3C1D0FCB84E80F002F
:10216000284B1B883B800023FB610023BB610023BD
:102170007B6200237B6100233B62234B5B68FB6136
:10218000FB6903F00C03042B02D0082B03D02DE0D5
:102190001E4B3B622DE0FB699B0C03F00F0307F124
:1021A0002802134413F8243C7B61FB6903F4803359
:1021B000002B13D0144B5B685B0C03F0010307F199
:1021C0002802134413F8283CBB61104ABB69B2FBD8
:1021D000F3F37A6902FB03F37B6204E07B690C4A48
:1021E00002FB03F37B627B6A3B6202E0074B3B62CC
:1021F00000BF3B6A18462837BD4690BC704700BFF9
:10220000F4C9000804CA00080010024000127A0055
:1022100000093D0080B400AF024B1B681846BD4664
:1022200080BC70471401002080B500AFFFF7F2FFBB
:102230000146054B5B681B0A03F00703034AD35CA6
:1022400021FA03F3184680BD00100240E0D40008D4
:1022500080B500AFFFF7DEFF0146054B5B68DB0A88
:1022600003F00703034AD35C21FA03F3184680BD49
:1022700000100240E0D4000880B483B000AF786062
:1022800039607B680F221A60114B5B6803F0030210
:102290007B685A600E4B5B6803F0F0027B689A60C3
:1022A0000B4B5B6803F4E0627B68DA60084B5B68A9
:1022B000DB0803F4E0627B681A61064B1B6803F0DD
:1022C00007023B681A6000BF0C37BD4680BC7047F0
:1022D000001002400020024080B485B000AF78605A
:1022E0000A4B1B680A4AA2FB03235B0A7A6802FBBB
:1022F00003F3FB6000BFFB685A1EFA60002BF9D1A4
:1023000000BF1437BD4680BC704700BF14010020D9
:10231000D34D621080B586B000AF786000233B617A
:102320000023FB607B681B6803F00103002B7DD05A
:102330000023FB754F4BDB6903F08053002B0DD15D
:102340004C4A4C4BDB6943F08053D361494BDB690A
:1023500003F08053BB60BB680123FB75464B1B68D1
:1023600003F48073002B18D1434A434B1B6843F49A
:1023700080731360FDF718FF386108E0FDF714FF64
:1023800002463B69D31A642B01D903236DE03A4B13
:102390001B6803F48073002BF0D0364B1B6A03F4E8
:1023A0004073FB60FB68002B2ED07B685B6803F4F6
:1023B0004072FB689A4227D02E4B1B6A23F440736D
:1023C000FB602E4B01221A602C4B00221A60294A16
:1023D000FB681362FB6803F00103002B14D0FDF7C8
:1023E000E3FE38610AE0FDF7DFFE02463B69D31ADF
:1023F00041F28832934201D9032336E01D4B1B6A18
:1024000003F00203002BEED01A491A4B1B6A23F487
:1024100040727B685B6813430B62FB7D012B05D127
:10242000144A144BDB6923F08053D3617B681B682B
:1024300003F00203002B08D00E490E4B5B6823F417
:1024400040427B689B6813434B607B681B6803F0CA
:102450001003002B08D00749064B5B6823F4800269
:102460007B68DB6813434B60002318461837BD4672
:1024700080BD00BF00100240007000404004424296
:1024800080B582B000AF78607B68002B01D101235A
:102490001AE07B68022283F851207B681B687A6807
:1024A0001268126822F040021A60786807F040FF54
:1024B0007B6800225A657B68002283F851207B6884
:1024C000002283F85020002318460837BD4680BDFF
:1024D00080B58AB002AFF860B9603B601346FB80FC
:1024E0000023BB610023FB77FB6893F85030012B7E
:1024F00001D1022323E1FB68012283F85020FDF77C
:1025000053FEB861FB6893F85130DBB2012B02D067
:102510000223FB770AE1BB68002B02D0FB88002B6B
:1025200002D10123FB7701E1FB68032283F85120EC
:10253000FB6800225A65FB68BA681A63FB68FA8870
:102540009A86FB68FA88DA86FB6800229A63FB6841
:1025500000229A87FB680022DA87FB6800225A640F
:10256000FB6800221A64FB689B68B3F5004F07D133
:10257000FB681B68FA681268126842F480421A60AD
:10258000FB681B681B6803F04003402B07D0FB6807
:102590001B68FA681268126842F040021A60FB6811
:1025A000DB68B3F5006F47D1FB685B68002B04D094
:1025B000FB68DB8E9BB2012B38D1FB681B68BA68C5
:1025C0001288DA60BB680233BB60FB68DB8E9BB2AB
:1025D000013B9AB2FB68DA8628E0FB681B689B68BF
:1025E00003F00203022B0FD1FB681B68BA68128844
:1025F000DA60BB680233BB60FB68DB8E9BB2013BD9
:102600009AB2FB68DA8611E03B68002B0BD03B687E
:10261000B3F1FF3F0AD0FDF7C7FD0246BB69D21AEE
:102620003B689A4202D30323FB777FE0FB68DB8E93
:102630009BB2002BD1D148E0FB685B68002B04D033
:10264000FB68DB8E9BB2012B3AD1FB681B680C3315
:10265000BA6812781A70BB680133BB60FB68DB8E06
:102660009BB2013B9AB2FB68DA8629E0FB681B68E3
:102670009B6803F00203022B10D1FB681B680C332C
:10268000BA6812781A70BB680133BB60FB68DB8ED6
:102690009BB2013B9AB2FB68DA8611E03B68002BE3
:1026A0000BD03B68B3F1FF3F0AD0FDF77DFD02463A
:1026B000BB69D21A3B689A4202D30323FB7735E009
:1026C000FB68DB8E9BB2002BD0D1BB6900933B68CB
:1026D00001220221F86800F0E3FA0346002B02D041
:1026E0000323FB7722E0BA693968F86800F041FB00
:1026F0000346002B05D00123FB77FB6820225A6597
:1027000014E0FB689B68002B0AD100237B61FB6807
:102710001B68DB687B61FB681B689B687B617B696E
:10272000FB685B6D002B01D00123FB77FB68012266
:1027300083F85120FB68002283F85020FB7F184665
:102740002037BD4680BD80B588B002AFF860B96063
:102750003B601346FB8000233B610023FB75FB6855
:102760005B68B3F5827F12D1FB689B68002B0ED1AA
:10277000FB68042283F85120FA883B6800931346D3
:10278000BA68B968F86800F0ECF80346E5E0FB6861
:1027900093F85030012B01D10223DEE0FB680122C7
:1027A00083F85020FDF700FD3861FB6893F8513045
:1027B000DBB2012B02D00223FB75C5E0BB68002B06
:1027C00002D0FB88002B02D10123FB75BCE0FB6823
:1027D000042283F85120FB6800225A65FB68BA681E
:1027E0009A63FB68FA889A87FB68FA88DA87FB683D
:1027F00000221A63FB6800229A86FB680022DA86B0
:10280000FB6800221A64FB6800225A64FB689B681C
:10281000B3F5004F07D1FB681B68FA6812681268AD
:1028200022F480421A60FB681B681B6803F04003B7
:10283000402B07D0FB681B68FA681268126842F0E8
:1028400040021A60FB68DB68002B5BD12AE0FB6862
:102850001B689B6803F00103012B11D1FB681B6807
:102860000C331B78DAB2BB681A70BB680133BB60EB
:10287000FB68DB8F9BB2013B9AB2FB68DA8711E001
:102880003B68002B0BD03B68B3F1FF3F0AD0FDF74C
:102890008BFC02463B69D21A3B689A4202D303235F
:1028A000FB7551E0FB68DB8F9BB2002BCFD12EE094
:1028B000FB681B689B6803F00103012B10D1FB68C8
:1028C0001B68DB689AB2BB681A80BB680233BB60C6
:1028D000FB68DB8F9BB2013B9AB2FB68DA8711E0A1
:1028E0003B68002B0BD03B68B3F1FF3F0AD0FDF7EC
:1028F0005BFC02463B69D21A3B689A4202D303232F
:10290000FB7521E0FB68DB8F9BB2002BD0D1FB680D
:102910005B68B3F5827F11D1FB689B68B3F5004F0C
:1029200004D0FB689B68B3F5806F07D1FB681B6818
:10293000FA681268126822F040021A60FB685B6D48
:10294000002B01D00123FB75FB68012283F8512085
:10295000FB68002283F85020FB7D18461837BD46DF
:1029600080BD80B58CB002AFF860B9607A607B80C2
:102970000023FB610023BB6100237B6101237B6299
:10298000002387F82330FB6893F85030012B01D1E6
:10299000022381E1FB68012283F85020FDF704FC4B
:1029A0007861FB6893F85130DBB2FB61FB685B68D0
:1029B000BB61FB69012B0ED0BB69B3F5827F06D1E9
:1029C000FB689B68002B02D1FB69042B03D0022318
:1029D00087F8233056E1BB68002B05D07B68002BBD
:1029E00002D07B88002B03D1012387F8233049E1F3
:1029F000FB6893F85130DBB2012B03D1FB68052251
:102A000083F85120FB6800225A65FB687A689A6354
:102A1000FB687A88DA87FB687A889A87FB68BA68E5
:102A20001A63FB687A88DA86FB687A889A86FB687C
:102A300000221A64FB6800225A64FB681B681B684A
:102A400003F04003402B07D0FB681B68FA6812684C
:102A5000126842F040021A60FB68DB68B3F5006F51
:102A600071D1FB685B68002B04D0FB68DB8E9BB2E6
:102A7000012B5DD1FB681B68BA681288DA60BB68FD
:102A80000233BB60FB68DB8E9BB2013B9AB2FB68F2
:102A9000DA864DE07B6A002B1CD0FB68DB8E9BB294
:102AA000002B17D0FB681B689B6803F00203022B06
:102AB00010D1FB681B68BA681288DA60BB68023301
:102AC000BB60FB68DB8E9BB2013B9AB2FB68DA8687
:102AD00000237B62FB68DB8F9BB2002B18D0FB6866
:102AE0001B689B6803F00103012B11D1FB681B6875
:102AF000DB689AB27B681A807B6802337B60FB6874
:102B0000DB8F9BB2013B9AB2FB68DA8701237B62C1
:102B10003B6BB3F1FF3F0BD0FDF746FB02467B69F1
:102B2000D21A3B6B9A4203D3032387F82330A9E0E0
:102B3000FB68DB8E9BB2002BACD1FB68DB8F9BB2BA
:102B4000002BA7D171E0FB685B68002B04D0FB6809
:102B5000DB8E9BB2012B5ED1FB681B680C33BA681D
:102B600012781A70BB680133BB60FB68DB8E9BB2C6
:102B7000013B9AB2FB68DA864DE07B6A002B1DD0E0
:102B8000FB68DB8E9BB2002B18D0FB681B689B6830
:102B900003F00203022B11D1FB681B6803F10C0246
:102BA000BB68591CB9601B781370FB68DB8E9BB245
:102BB000013B9AB2FB68DA8600237B62FB68DB8FFD
:102BC0009BB2002B17D0FB681B689B6803F00103C6
:102BD000012B10D17B685A1C7A60FA681268D2689F
:102BE000D2B21A70FB68DB8F9BB2013B9AB2FB68D2
:102BF000DA8701237B623B6BB3F1FF3F0BD0FDF71C
:102C0000D3FA02467B69D21A3B6B9A4203D3032361
:102C100087F8233036E0FB68DB8E9BB2002BACD10B
:102C2000FB68DB8F9BB2002BA7D17B6900933B6BCA
:102C300001220221F86800F033F80346002B03D08C
:102C4000032387F823301DE07A69396BF86800F0B8
:102C500090F80346002B06D0012387F82330FB6849
:102C600020225A650EE0FB689B68002B0AD10023E6
:102C70003B61FB681B68DB683B61FB681B689B680A
:102C80003B613B69FB68012283F85120FB6800220D
:102C900083F8502097F8233018462837BD4680BD6A
:102CA00080B584B000AFF860B9607A603B604DE0F9
:102CB0003B68B3F1FF3F49D03B68002B07D0FDF7DD
:102CC00073FA0246BB69D21A3B689A423ED3FB684C
:102CD0001B68FA681268526822F0E0025A60FB68CA
:102CE0005B68B3F5827F11D1FB689B68B3F5004F39
:102CF00004D0FB689B68B3F5806F07D1FB681B6845
:102D0000FA681268126822F040021A60FB689B6A37
:102D1000B3F5005F10D1FB681A68FB681B6819687F
:102D20004DF6FF730B401360FB681B68FA6812686E
:102D3000126842F400521A60FB68012283F85120A5
:102D4000FB68002283F8502003230EE0FB681B6819
:102D50009A68BB681A40BB689A4201D1012200E020
:102D600000227B689A42A3D1002318461037BD4643
:102D700080BD80B586B002AFF860B9607A607B68CC
:102D80000093BB6800228021F868FFF789FF0346A3
:102D9000002B07D0FB685B6D43F02002FB685A658F
:102DA000032300E0002318461037BD4680BD80B5E0
:102DB00082B000AF78607B68002B01D1012356E020
:102DC0007B6800229A627B6893F85130DBB2002B5B
:102DD00002D1786807F01AFA7B68022283F8512042
:102DE0007B681B687A681268126822F040021A60D9
:102DF0007B681B687A6851687A68926811437A68C0
:102E0000D26811437A68126911437A685269114392
:102E10007A68926902F4007211437A68D2691143A8
:102E20007A68126A11437A68926A0A431A607B6868
:102E30001B687A689269120C02F004017A68526A7F
:102E40000A435A607B681B687A68D26A1A617B6899
:102E50001B687A681268D26922F40062DA617B68C2
:102E600000225A657B68012283F85120002318460E
:102E70000837BD4680BD80B582B000AF78607B6802
:102E8000002B01D101231DE07B6893F83D30DBB2BC
:102E9000002B06D17B68002283F83C20786800F084
:102EA00015F87B68022283F83D207B681A687B68EE
:102EB00004331946104600F059F97B68012283F863
:102EC0003D20002318460837BD4680BD80B483B03E
:102ED00000AF786000BF0C37BD4680BC704780B43F
:102EE00083B000AF78607B681B687A681268D2682C
:102EF00042F00102DA607B681B687A681268126827
:102F000042F001021A60002318460C37BD4680BC0F
:102F1000704780B582B000AF78607B681B681B6922
:102F200003F00203022B22D17B681B68DB6803F0ED
:102F30000203022B1BD17B681B686FF002021A612F
:102F40007B6801221A777B681B689B6903F0030387
:102F5000002B03D0786800F0EDF805E0786800F009
:102F6000E0F8786800F0EFF87B6800221A777B6859
:102F70001B681B6903F00403042B22D17B681B68C8
:102F8000DB6803F00403042B1BD17B681B686FF024
:102F900004021A617B6802221A777B681B689B69AE
:102FA00003F44073002B03D0786800F0C3F805E009
:102FB000786800F0B6F8786800F0C5F87B68002201
:102FC0001A777B681B681B6903F00803082B22D162
:102FD0007B681B68DB6803F00803082B1BD17B6848
:102FE0001B686FF008021A617B6804221A777B68FD
:102FF0001B68DB6903F00303002B03D0786800F043
:1030000099F805E0786800F08CF8786800F09BF893
:103010007B6800221A777B681B681B6903F010032A
:10302000102B22D17B681B68DB6803F01003102B88
:103030001BD17B681B686FF010021A617B68082245
:103040001A777B681B68DB6903F44073002B03D09D
:10305000786800F06FF805E0786800F062F878684A
:1030600000F071F87B6800221A777B681B681B6987
:1030700003F00103012B0ED17B681B68DB6803F0B2
:103080000103012B07D17B681B686FF001021A61F5
:10309000786807F03FF87B681B681B6903F08003C2
:1030A000802B0ED17B681B68DB6803F08003802BCC
:1030B00007D17B681B686FF080021A61786800F0A6
:1030C000C4F87B681B681B6903F04003402B0ED1DA
:1030D0007B681B68DB6803F04003402B07D17B68EB
:1030E0001B686FF040021A61786800F035F87B6861
:1030F0001B681B6903F02003202B0ED17B681B6823
:10310000DB6803F02003202B07D17B681B686FF07E
:1031100020021A61786800F08FF800BF0837BD46BA
:1031200080BD80B483B000AF786000BF0C37BD466F
:1031300080BC704780B483B000AF786000BF0C37AC
:10314000BD4680BC704780B483B000AF786000BFDC
:103150000C37BD4680BC704780B483B000AF786048
:1031600000BF0C37BD4680BC7047000080B485B0FE
:1031700000AF786039600023FB607B681B68FB60F0
:103180007B682A4A93420BD07B68B3F1804F07D00B
:103190007B68274A934203D07B68264A934208D132
:1031A000FB6823F07003FB603B685B68FA681343BD
:1031B000FB607B681D4A93420BD07B68B3F1804F64
:1031C00007D07B681A4A934203D07B68194A93421E
:1031D00008D1FB6823F44073FB603B68DB68FA6846
:1031E0001343FB60FB6823F08003FB603B685B6973
:1031F000FA681343FB607B68FA681A603B689A6858
:103200007B68DA623B681A687B689A627B68074A67
:10321000934203D13B681A697B681A637B68012279
:103220005A6100BF1437BD4680BC7047002C014076
:10323000000400400008004080B483B000AF786014
:1032400000BF0C37BD4680BC704780B483B000AF70
:10325000786000BF0C37BD4680BC704780B582B037
:1032600000AF78607B68002B01D101233FE07B68D1
:1032700093F83930DBB2002B06D17B68002283F84B
:103280003820786807F07CF87B68242283F839209E
:103290007B681B687A681268D26822F40052DA6090
:1032A000786800F0B1F97B681B687A681268126967
:1032B00022F490421A617B681B687A68126852692E
:1032C00022F02A025A617B681B687A681268D26809
:1032D00042F40052DA607B680022DA637B682022C5
:1032E00083F839207B68202283F83A20002318468F
:1032F0000837BD4680BD80B588B002AFF860B960C0
:103300003B601346FB8000237B61FB6893F83930F8
:10331000DBB2202B40F08280BB68002B02D0FB8800
:10332000002B01D101237AE0FB6893F83830012BA0
:1033300001D1022373E0FB68012283F83820FB6887
:103340000022DA63FB68212283F83920FCF72CFF86
:103350007861FB68FA889A84FB68FA88DA8441E02D
:10336000FB68DB8C9BB2013B9AB2FB68DA84FB689A
:103370009B68B3F5805F21D13B6800937B69002295
:103380008021F86800F0F5F80346002B01D00323F4
:1033900045E0BB683B61FB681B683A691288C2F371
:1033A00008025A60FB681B69002B03D1BB6802331B
:1033B000BB6017E0BB680133BB6013E03B68009360
:1033C0007B6900228021F86800F0D3F80346002BC7
:1033D00001D0032323E0FB681A68BB68591CB9605D
:1033E0001B785360FB68DB8C9BB2002BB8D13B6829
:1033F00000937B6900224021F86800F0BAF8034688
:10340000002B01D003230AE0FB68202283F8392037
:10341000FB68002283F83820002300E002231846CE
:103420001837BD4680BD80B588B002AFF860B9607E
:103430003B601346FB8000237B61FB6893F83A30C6
:10344000DBB2202B40F09080BB68002B02D0FB88C1
:10345000002B01D1012388E0FB6893F83830012B61
:1034600001D1022381E0FB68012283F83820FB6848
:103470000022DA63FB68222283F83A20FCF794FEEC
:103480007861FB68FA889A85FB68FA88DA855CE0DF
:10349000FB68DB8D9BB2013B9AB2FB68DA85FB6867
:1034A0009B68B3F5805F2BD13B6800937B6900225A
:1034B0002021F86800F05DF80346002B01D00323BB
:1034C00053E0BB683B61FB681B69002B0CD1FB68B8
:1034D0001B685B689BB2C3F308039AB23B691A800E
:1034E000BB680233BB6030E0FB681B685B689BB263
:1034F000DBB29AB23B691A80BB680133BB6024E03F
:103500003B6800937B6900222021F86800F031F8C5
:103510000346002B01D0032327E0FB681B69002B27
:1035200008D1BB685A1CBA60FA6812685268D2B2F5
:103530001A700AE0BB685A1CBA60FA6812685268CE
:10354000D2B202F07F02D2B21A70FB68DB8D9BB25E
:10355000002B9DD1FB68202283F83A20FB680022D3
:1035600083F83820002300E0022318461837BD46B0
:1035700080BD80B584B000AFF860B9603B60134691
:10358000FB712CE0BB69B3F1FF3F28D0BB69002B76
:1035900007D0FCF709FE02463B68D21ABB699A4283
:1035A0001DD9FB681B68FA681268D26822F4D072D1
:1035B000DA60FB681B68FA681268526922F001023F
:1035C0005A61FB68202283F83920FB68202283F8A7
:1035D0003A20FB68002283F8382003230FE0FB68C1
:1035E0001B681A68BB681A40BB689A420CBF01236B
:1035F0000023DBB21A46FB799A42C3D00023184657
:103600001037BD4680BD0000F0B585B000AF7860D2
:103610000023FB607B681B687A681268126922F4D9
:1036200040517A68D2680A431A617B689A687B685D
:103630001B691A437B685B691343FA681343FB6099
:103640007B681A687B681B68DB6823F4B05323F03F
:103650000C03F9680B43D3607B681B687A681268B7
:10366000526922F440717A6892690A435A617B6810
:103670001B686F4A93426BD17B681C68FEF7E8FDBC
:10368000024613469B0013449A001A447B685B6809
:103690009B00B2FBF3F3674AA2FB03235B091D0106
:1036A000FEF7D6FD024613469B0013449A001A44C7
:1036B0007B685B689B00B2FBF3F6FEF7C9FD024630
:1036C00013469B0013449A001A447B685B689B0076
:1036D000B2FBF3F3574AA2FB03235B09642202FB0C
:1036E00003F3F31A1B013233524AA2FB03235B0993
:1036F00003F0F0031D44FEF7ABFD024613469B00AA
:1037000013449A001A447B685B689B00B2FBF3F693
:10371000FEF79EFD024613469B0013449A001A448E
:103720007B685B689B00B2FBF3F3424AA2FB032376
:103730005B09642202FB03F3F31A1B0132333D4A97
:10374000A2FB03235B0903F00F032B44A3606AE091
:103750007B681C68FEF768FD024613469B00134415
:103760009A001A447B685B689B00B2FBF3F3314A12
:10377000A2FB03235B091D01FEF756FD024613461B
:103780009B0013449A001A447B685B689B00B2FB61
:10379000F3F6FEF749FD024613469B0013449A00D8
:1037A0001A447B685B689B00B2FBF3F3214AA2FBDF
:1037B00003235B09642202FB03F3F31A1B01323378
:1037C0001C4AA2FB03235B0903F0F0031D44FEF730
:1037D0002BFD024613469B0013449A001A447B6853
:1037E0005B689B00B2FBF3F6FEF71EFD0246134634
:1037F0009B0013449A001A447B685B689B00B2FBF1
:10380000F3F30C4AA2FB03235B09642202FB03F3DC
:10381000F31A1B013233074AA2FB03235B0903F0AF
:103820000F032B44A36000BF1437BD46F0BD00BF9B
:10383000003801401F85EB5184B080B483B000AFE5
:10384000786007F1140080E80E00002318460C375A
:10385000BD4680BC04B0704780B485B000AF7860CE
:103860000023FB604FF43F43FB607B68B3F84030BC
:103870009AB2FB689BB213439AB27B68A3F84020CC
:10388000002318461437BD4680BC704780B485B00D
:1038900000AF78600023FB604FF43D43FB607B6822
:1038A000B3F840309AB2FB689BB2DB439BB2134043
:1038B0009AB27B68A3F84020002318461437BD460F
:1038C00080BC704780B483B000AF78600B46FB705B
:1038D000002318460C37BD4680BC704784B080B5C5
:1038E00082B000AF786007F1140080E80E007B68BA
:1038F0000122A3F840207B680022A3F840207B68C7
:103900000022A3F844207B680022A3F850207868A6
:10391000FFF7A2FF002318460837BD46BDE88040E8
:1039200004B0704790B484B000AF786039603B68F1
:10393000DB78032B5FD801A252F823F04D39000841
:10394000CB390008793900089F3900087A683B684C
:103950001B789B001A4479683B681B789B000B44DA
:103960001B889BB223F4EC4323F070039BB243F417
:1039700000739BB213803FE07A683B681B789B0022
:103980001A4479683B681B789B000B441B889BB2E8
:1039900023F4EC4323F070039BB213802CE07A688D
:1039A0003B681B789B001A4479683B681B789B0036
:1039B0000B441B889BB223F4EC4323F070039BB2AF
:1039C00043F4C0639BB2138016E07A683B681B78AF
:1039D0009B001A4479683B681B789B000B441B884A
:1039E0009BB223F4EC4323F070039BB243F4806357
:1039F0009BB2138000E000BF7A683B681B789B0095
:103A00001A4479683B681B789B000B441B8899B269
:103A100040F60F730B4099B23B681B789BB20B4387
:103A200099B2754B0B439BB213803B689B7A002B7A
:103A300040F0E8803B685B78002B4CD07B68B3F8A3
:103A400050309BB21A463B681B78DB0013445A0087
:103A50007B68134403F580631A463B689B885B08C8
:103A60009BB25B0013607A683B681B789B00134431
:103A70001B889BB203F04003002B13D07A683B688D
:103A80001B789B001A4479683B681B789B000B44A9
:103A90001B8899B240F60F730B4099B2574B0B43FA
:103AA0009BB213807A683B681B789B0013441B8889
:103AB0009BB223F4E04323F040039CB284F0200344
:103AC0009CB27A683B681B789B001A444A4B23439C
:103AD0009BB21380D9E17B68B3F850309BB21A4691
:103AE0003B681B78DB00134404335A007B681344A3
:103AF00003F580631A463B689B885B089BB25B00BA
:103B000013607B68B3F850309BB21A463B681B7851
:103B1000DB00134406335A007B68134403F58063CB
:103B2000BB603B681B693E2B18D93B681B695B096E
:103B3000FB813B681B6903F01F03002B02D1FB894B
:103B4000013BFB81FB899B029BB26FEA43436FEA17
:103B500053439BB21A46BB681A6012E03B681B696C
:103B60005B08FB813B681B6903F00103002B02D05B
:103B7000FB890133FB81FB899B029BB21A46BB6820
:103B80001A607A683B681B789B0013441B889BB2C1
:103B900003F48043002B13D07A683B681B789B00AA
:103BA0001A4479683B681B789B000B441B8899B2C8
:103BB00040F60F730B4099B2114B0B439BB213802D
:103BC0007A683B681B789B0013441B889BB223F4E4
:103BD000804323F070039CB284F480539CB284F43D
:103BE00000539CB27A683B681B789B001A44024BD6
:103BF00023439BB2138048E18080FFFFC080FFFF1A
:103C000080C0FFFF7A683B681B789B001A44796884
:103C10003B681B789B000B441B8899B240F60F63EE
:103C20000B4099B29C4B0B439BB213807B68B3F85B
:103C300050309BB21A463B681B78DB0013445A0095
:103C40007B68134403F580631A463B68DB885B0896
:103C50009BB25B0013607B68B3F850309BB21A468E
:103C60003B681B78DB00134404335A007B68134421
:103C700003F580631A463B681B895B089BB25B00B7
:103C800013603B685B78002B40F083807A683B6868
:103C90001B789B0013441B889BB203F48043002BCA
:103CA00013D07A683B681B789B001A4479683B689C
:103CB0001B789B000B441B8899B240F60F730B4096
:103CC00099B2764B0B439BB213807A683B681B78A2
:103CD0009B0013441B889BB203F04003002B13D0BE
:103CE0007A683B681B789B001A4479683B681B78AC
:103CF0009B000B441B8899B240F60F730B4099B29E
:103D0000674B0B439BB213807A683B681B789B0020
:103D10001A4479683B681B789B000B441B8899B256
:103D200040F60F730B4099B25D4B0B439BB213806F
:103D30007A683B681B789B0013441B889BB223F472
:103D4000804323F070039CB284F480539CB284F4CB
:103D500000539CB27A683B681B789B001A44514B15
:103D600023439BB213807A683B681B789B00134403
:103D70001B889BB223F4E04323F040039CB27A6893
:103D80003B681B789B001A44464B23439BB213802D
:103D90007BE07A683B681B789B0013441B889BB2CE
:103DA00003F48043002B13D07A683B681B789B0098
:103DB0001A4479683B681B789B000B441B8899B2B6
:103DC00040F60F730B4099B2344B0B439BB21380F8
:103DD0007A683B681B789B0013441B889BB203F0F6
:103DE0004003002B13D07A683B681B789B001A4471
:103DF00079683B681B789B000B441B8899B240F69E
:103E00000F730B4099B2264B0B439BB213807A6819
:103E10003B681B789B001A4479683B681B789B00C1
:103E20000B441B8899B240F60F730B4099B21B4BA1
:103E30000B439BB213807A683B681B789B0013444A
:103E40001B889BB223F4E04323F040039CB27A68C2
:103E50003B681B789B001A44124B23439BB2138090
:103E60007A683B681B789B0013441B889BB223F441
:103E7000804323F070039CB27A683B681B789B00F8
:103E80001A44084B23439BB2138000231846103773
:103E9000BD4690BC704700BF8081FFFF80C0FFFF20
:103EA000C080FFFF8080FFFF90B58DB000AF7860CD
:103EB00039600023FB853B689B69BB623B685B788C
:103EC000012B40F049813B689A693B681B699A4223
:103ED00009D93B681B69BB623B689A69BB6AD21A05
:103EE0003B689A6105E03B689B69BB623B680022C6
:103EF0009A613B689B7A002B1BD13B6859693B68F0
:103F00009A88BB6A9BB2786800F093FB7B68B3F831
:103F100050309BB21A463B681B78DB0013440233D7
:103F20005A007B68134403F580631A46BB6A13602A
:103F3000F6E07A683B681B789B0013441B889BB2B1
:103F400003F04003002B59D03B685B78002B3BD13A
:103F50007B68B3F850309BB21A463B681B78DB0095
:103F6000134406335A007B68134403F58063BB6136
:103F7000BB6A3E2B16D9BB6A5B09FB84BB6A03F0A4
:103F80001F03002B02D1FB8C013BFB84FB8C9B02AB
:103F90009BB26FEA43436FEA53439BB21A46BB6935
:103FA0001A6027E0BB6A5B08FB84BB6A03F001036D
:103FB000002B02D0FB8C0133FB84FB8C9B029BB259
:103FC0001A46BB691A6015E03B685B78012B11D17A
:103FD0007B68B3F850309BB21A463B681B78DB0015
:103FE000134402335A007B68134403F580631A4676
:103FF000BB6A13603B681B89FB8558E03B685B78B4
:10400000002B3BD17B68B3F850309BB21A463B681B
:104010001B78DB00134402335A007B68134403F51A
:1040200080637B61BB6A3E2B16D9BB6A5B09BB848C
:10403000BB6A03F01F03002B02D1BB8C013BBB8486
:10404000BB8C9B029BB26FEA43436FEA53439BB224
:104050001A467B691A6027E0BB6A5B08BB84BB6AAF
:1040600003F00103002B02D0BB8C0133BB84BB8C5B
:104070009B029BB21A467B691A6015E03B685B782D
:10408000012B11D17B68B3F850309BB21A463B68C4
:104090001B78DB00134402335A007B68134403F59A
:1040A00080631A46BB6A13603B68DB88FB853B680C
:1040B0005969BB6A9BB2FA8D786800F0BAFA3B681E
:1040C0005B78002B14D17A683B681B789B001A44FC
:1040D00079683B681B789B000B441B8899B240F6BB
:1040E0000F730B4099B2924B0B439BB2138017E0B6
:1040F0003B685B78012B13D17A683B681B789B0087
:104100001A4479683B681B789B000B441B8899B262
:1041100040F60F730B4099B2864B0B439BB2138052
:104120007A683B681B789B0013441B889BB223F47E
:10413000E04323F040039CB284F010039CB284F06F
:1041400020039CB27A683B681B789B001A447A4B28
:1041500023439BB2138022E13B689A693B681B6949
:104160009A4209D93B681B69BB623B689A69BB6A82
:10417000D21A3B689A6105E03B689B69BB623B6869
:1041800000229A613B689B7A002B3BD17B68B3F895
:1041900050309BB21A463B681B78DB001344063351
:1041A0005A007B68134403F580633B61BB6A3E2B76
:1041B00016D9BB6A5B097B84BB6A03F01F03002B23
:1041C00002D17B8C013B7B847B8C9B029BB26FEA90
:1041D00043436FEA53439BB21A463B691A60C3E0FC
:1041E000BB6A5B087B84BB6A03F00103002B02D02F
:1041F0007B8C01337B847B8C9B029BB21A463B6990
:104200001A60B1E03B685B78002B3BD17B68B3F868
:1042100050309BB21A463B681B78DB0013440233D4
:104220005A007B68134403F58063FB60BB6A3E2B36
:1042300016D9BB6A5B093B84BB6A03F01F03002BE2
:1042400002D13B8C013B3B843B8C9B029BB26FEACF
:1042500043436FEA53439BB21A46FB681A6027E058
:10426000BB6A5B083B84BB6A03F00103002B02D0EE
:104270003B8C01333B843B8C9B029BB21A46FB6810
:104280001A6015E03B685B78012B11D17B68B3F8AD
:1042900050309BB21A463B681B78DB001344023354
:1042A0005A007B68134403F580631A46BB6A1360A7
:1042B0003B685B78002B41D17B68B3F850309BB2F0
:1042C0001A463B681B78DB00134406335A007B68B0
:1042D000134403F58063BB60BB6A3E2B16D9BB6AEF
:1042E0005B09FB83BB6A03F01F03002B02D1FB8B2E
:1042F000013BFB83FB8B9B029BB26FEA43436FEA5C
:1043000053439BB21A46BB681A602DE0BB6A5B0838
:10431000FB83BB6A03F00103002B02D0FB8B01334C
:10432000FB83FB8B9B029BB21A46BB681A601BE0A7
:10433000C080FFFF80C0FFFF8080FFFF3B685B788D
:10434000012B11D17B68B3F850309BB21A463B6801
:104350001B78DB00134402335A007B68134403F5D7
:1043600080631A46BB6A13607A683B681B789B00BF
:1043700013441B889BB223F4804323F070039CB248
:1043800084F480539CB284F400539CB27A683B68F6
:104390001B789B001A44044B23439BB213800023D9
:1043A00018463437BD4690BD8080FFFF90B482B080
:1043B00000AF786039603B681B78002B18D17A68B1
:1043C0003B681B789B0013441B889BB24BF6BF7461
:1043D0001C4084F4805484F010047A683B681B7895
:1043E0009B001A44A1B2204B0B439BB2138034E0D4
:1043F0003B685B78002B18D07A683B681B789B0081
:1044000013441B889BB223F4E04323F040039CB287
:1044100084F010039CB27A683B681B789B001A44B6
:10442000114B23439BB2138017E07A683B681B78DB
:104430009B0013441B889BB223F4804323F070033A
:104440009CB284F480539CB27A683B681B789B00D2
:104450001A44054B23439BB21380002318460837A8
:10446000BD4690BC704700BF8080FFFF90B482B013
:1044700000AF786039603B685B78002B3AD07A688F
:104480003B681B789B0013441B889BB203F04003DE
:10449000002B13D07A683B681B789B001A4479681C
:1044A0003B681B789B000B441B8899B240F60F7346
:1044B0000B4099B22F4B0B439BB213807A683B6839
:1044C0001B789B0013441B889BB223F4E04323F02A
:1044D00040039CB284F010039CB284F020039CB291
:1044E0007A683B681B789B001A44234B23439BB29A
:1044F000138039E07A683B681B789B0013441B8863
:104500009BB203F48043002B13D07A683B681B787E
:104510009B001A4479683B681B789B000B441B88FE
:1045200099B240F60F730B4099B2144B0B439BB2F8
:1045300013807A683B681B789B0013441B889BB2EE
:1045400023F4804323F070039CB284F480539CB224
:1045500084F400539CB27A683B681B789B001A4431
:10456000054B23439BB21380002318460837BD46F2
:1045700090BC7047C080FFFF8080FFFF80C0FFFFBE
:1045800080B483B000AF78607B680122A3F840203C
:104590007B680022A3F844207B680322A3F8402014
:1045A000002318460C37BD4680BC704780B483B0EA
:1045B00000AF78600B46FB70FB78002B03D17B6863
:1045C0008022A3F84C20002318460C37BD4680BC3F
:1045D000704780B483B000AF7860002318460C3772
:1045E000BD4680BC704780B483B000AF78600023C4
:1045F00018460C37BD4680BC704780B485B000AF0C
:1046000078600023FB607B68B3F844309BB2FB60AA
:10461000FB6818461437BD4680BC704780B483B031
:1046200000AF78603960002318460C37BD4680BC67
:10463000704780B48BB000AFF860B96011461A467D
:104640000B46FB801346BB80BB8801335B10FB61CC
:1046500000237B620023BB6100237B6100233B625C
:10466000FB885B001A46FB68134403F580633B62DA
:10467000FB697B621BE0BB681B78BB61BB680133D5
:10468000BB60BB681B781B021A46BB6913437B6186
:104690003B6A9A1C3A627A6992B21A803B6A023388
:1046A0003B62BB680133BB607B6A013B7B627B6A18
:1046B000002BE0D100BF2C37BD4680BC704780B4D2
:1046C00089B000AFF860B96011461A460B46FB800E
:1046D0001346BB80BB8801335B107B610023FB6109
:1046E0000023BB61FB885B001A46FB68134403F59B
:1046F0008063BB617B69FB610EE0BB685A1CBA60DA
:10470000BA69111DB961126892B21A80BB6801338F
:10471000BB60FB69013BFB61FB69002BEDD100BF76
:104720002437BD4680BC704780B400AFBFF34F8FC5
:104730000549054BDB6803F4E062044B1343CB608F
:10474000BFF34F8F00BFFDE700ED00E00400FA0566
:1047500080B584B000AF78600B46FB7041F2180062
:1047600006F028FB02467B68C3F818227B68D3F862
:104770001832002B01D1022355E07B68D3F81832A0
:10478000FB60FB6803F58053143300221A60FB685A
:1047900003F58053103300221A60FB6803F5805341
:1047A000083300221A60FB6803F580530C330022A3
:1047B0001A60FB6803F58053073300221A70FB6808
:1047C00003F5805302221A70FB6803F5805301330E
:1047D00000221A70FB6803F58053023300221A701E
:1047E000FB6803F58053033300221A70FB6803F55E
:1047F0008053043300221A70FB6803F5805305339D
:1048000002221A70FB6803F58053063300221A70E7
:104810007B68D3F81C325B6898470346002B01D0B5
:10482000022300E0002318461037BD4680BD80B546
:1048300084B000AF78600B46FB707B68D3F8183209
:10484000FB60FB6803F58053083300221A60FB68A5
:1048500003F580530C3300221A60FB6803F5805384
:1048600002221A70FB6803F58053013300221A708C
:10487000FB6803F58053053302221A707B68D3F876
:104880001832002B0ED07B68D3F81C329B689847F7
:104890007B68D3F81832184606F098FA7B68002235
:1048A000C3F81822002318461037BD4680BD00000B
:1048B00080B586B000AF7860396000237B6100234B
:1048C0007B8200237B747B68D3F81832FB603B68E3
:1048D0001B7803F06003002B3DD0202B7ED13B687A
:1048E0005B78062B2FD801A252F823F03D4900082F
:1048F00009490008134900081D4900082549000816
:104900002D490008354900083968786800F0A4FA94
:1049100020E03968786800F023FB1BE0786800F03D
:104920003BFC17E0786800F023FD13E0786800F0A6
:104930008BFD0FE0786800F09BFD0BE0396878682C
:1049400000F012FA06E03968786801F0A6FC02234C
:104950007B7443E042E03B685B780A2B18D00B2B5A
:1049600020D0062B34D13B685B881B0A9BB2212BDD
:1049700007D11D4B7B613B68DB88092B28BF0923CE
:104980007B827B8A1A467969786801F0F1FC25E020
:10499000FB6803F58053143301221946786801F04F
:1049A000E7FC1BE03B685B88DBB2002B09D13B686E
:1049B0005B88DBB21A46FB6803F5805314331A6038
:1049C0000CE03968786801F068FC02237B7405E02C
:1049D0003968786801F061FC02237B747B7C18469F
:1049E0001837BD4680BD00BF4E00002080B483B0A4
:1049F00000AF78607B681B221A80034B18460C3787
:104A0000BD4680BC704700BF3C00002080B483B02E
:104A100000AF78600B46FB70002318460C37BD468C
:104A200080BC704780B483B000AF78600023184624
:104A30000C37BD4680BC704790B587B000AF78603A
:104A40007B68D3F818327B617B6903F580531B7850
:104A5000042B40F00E817B6903F5805308331B68FB
:104A6000002B40F0AE807B691B78002B07D17B695F
:104A700003F580530C331B68012B00F0CC807B695D
:104A80001B78212B39D17B6903F580530C331B68CC
:104A9000052B32D17B695B781A467B6903F580531D
:104AA00010331A607B6903F5805310331B687A69F1
:104AB000927812021A447B6903F5805310331A600E
:104AC0007B6903F5805310331B687A69D27812042E
:104AD0001A447B6903F5805310331A607B6903F530
:104AE000805310331B687A69127912061A447B6965
:104AF00003F5805310331A608DE07B691B78412BDE
:104B000048D17B6903F580530C331B68052B41D1D9
:104B10007B695B781A467B6903F5805310331A6012
:104B20007B6903F5805310331B687A69927812020F
:104B30001A447B6903F5805310331A607B6903F5CF
:104B4000805310331B687A69D27812041A447B6947
:104B500003F5805310331A607B6903F580531033DB
:104B60001B687A69127912061A447B6903F580532F
:104B700010331A607B68D3F81C32DA687B6903F55E
:104B8000805310331B68184690470346002B42D0D1
:104B9000022378E07B6903F580530C3300221A600E
:104BA0007B6903F58053083300221A6000233B72AF
:104BB0000123FB8107F108031946786801F06DFBBA
:104BC00029E07B6903F5805308331B68012B22D948
:104BD0007B6903F5805308331B6803F57F2303F6D5
:104BE000FE731A037B6903F5805310331B6813446B
:104BF0003B617B68D3F81C321C69786939697B6931
:104C000003F580530C331B681A46A0470346002B5C
:104C100001D0022337E07B6903F580530C33002277
:104C20001A607B6903F58053083300221A607B69A0
:104C300003F5805303221A707B6903F58053023316
:104C400000221A707B6903F58053033300221A7027
:104C50007B6903F58053043300221A707B6903F5E6
:104C600080531A787B6903F5805305331A7000234B
:104C700009E07B6903F580531B78072B02D1786824
:104C800000F05AFC002318461C37BD4690BD80B486
:104C900083B000AF7860002318460C37BD4680BC57
:104CA000704780B483B000AF78600B46FB70002380
:104CB00018460C37BD4680BC704780B483B000AF47
:104CC00078600B46FB70002318460C37BD4680BC4D
:104CD000704780B483B000AF78600B46FB70002350
:104CE00018460C37BD4680BC7047000080B483B0C6
:104CF00000AF78607B680A221A80034B18460C3795
:104D0000BD4680BC704700BF5800002080B584B00D
:104D100000AFF8600B467A60FB72FB7A062B0AD86C
:104D2000FB68D3F81C321B687A680549184601F005
:104D3000C5FA034B00E0002318461037BD4680BD7E
:104D4000E801002080B483B000AF786039603B6830
:104D5000002B03D07B683A68C3F81C220023184656
:104D60000C37BD4680BC704780B584B000AF78601A
:104D700039607B68D3F81832FB60FB6803F5805319
:104D80001B78022B17D0FB6803F580531B78032B8D
:104D900011D0FB6803F580531B78052B0BD0FB6803
:104DA00003F580531B78062B05D0FB6803F5805371
:104DB0001B78092B37D1FB6803F5805302221A7048
:104DC000FB6803F58053013300221A70FB6803F57A
:104DD0008053023300221A70FB6803F580530333BB
:104DE00000221A70FB6803F58053043300221A7006
:104DF000FB6803F580531A78FB6803F5805305338D
:104E00001A70FB6803F58053063300221A70FB68A2
:104E100003F58053083300221A60FB6803F58053C2
:104E20000C3300221A600B4B5B7D03F01003002B48
:104E300006D0786800F036FC786800F027FC04E0C3
:104E40003B685B881846FBF7B9F900BF1037BD46D1
:104E500080BD00BF3C00002080B584B000AF78600A
:104E600039607B68D3F81832FB603B68DB88002B25
:104E70003AD0FB6803F580531B78022B05D0FB6802
:104E800003F580531B78052B29D13B685B881A46B4
:104E9000FB6803F5805308331A603B68DB881A46C9
:104EA000FB6803F580530C331A60FB6803F58053ED
:104EB00003221A70FB6803F580531A78FB6803F528
:104EC000805305331A70F968FB6803F580530C337F
:104ED0001B689BB21A46786801F078FA3CE03968A2
:104EE000786801F0DAF937E0FB6803F580531B7846
:104EF000052B05D0FB6803F580531B78022B26D1C8
:104F0000FB6803F58053073301221A70FB6803F531
:104F1000805306221A70FB6803F580530233002287
:104F20001A70FB6803F58053033300221A70FB6884
:104F300003F58053043300221A70FB6803F5805395
:104F40001A78FB6803F5805305331A7004E039685A
:104F5000786801F0A2F9FFE700BF1037BD4680BDB9
:104F600090B587B000AF786039607B68D3F81832AD
:104F70007B6100233B610023FB603B68DB88002BE7
:104F800000F0E5807B6903F580531B78022B06D087
:104F90007B6903F580531B78092B40F0C7803B6881
:104FA0005B881A467B6903F5805308331A603B68B7
:104FB000DB881A467B6903F580530C331A607B69E2
:104FC00003F5805308331B68002B38D17B6903F548
:104FD00080530C331B68032B01D9022200E0092205
:104FE0007B6903F580531A707B6903F580530233A4
:104FF00000221A707B6903F58053033300221A7074
:105000007B6903F58053043300221A707B6903F532
:1050100080531A787B6903F5805305331A707B69D6
:1050200000221A707B6921225A707B6941229A7092
:105030007B6903221946786801F09AF9A8E07B6938
:1050400003F5805308331B68012B4AD97B6903F5AC
:10505000805309221A707B6903F5805302330022C2
:105060001A707B6903F58053033300221A707B6941
:1050700003F58053043300221A707B6903F58053D3
:105080001A787B6903F5805305331A707B6903F541
:10509000805308331B6803F57F2303F6FE731A035E
:1050A0007B6903F5805310331B681344FB607B68F6
:1050B000D3F81C325C69F86879697B6903F5805321
:1050C0000C331B681A46A04738617B6903F580538F
:1050D0000C331B689BB21A463969786801F048F9AD
:1050E00056E07B6903F580530F221A707B6903F544
:1050F0008053023300221A707B6903F58053033317
:1051000000221A707B6903F58053043300221A7061
:105110007B6903F580531A787B6903F58053053367
:105120001A703968786801F0B8F831E07B6903F5E6
:1051300080530C3300221A607B6903F580530833D7
:1051400000221A603968786801F0A7F820E07B69CE
:1051500003F5805302221A707B6903F580530233F2
:1051600000221A707B6903F58053033300221A7002
:105170007B6903F58053043300221A707B6903F5C1
:1051800080531A787B6903F5805305331A70FFE763
:1051900000BF1C37BD4690BD90B585B000AF7860AC
:1051A0007B68D3F81832FB60FB6803F580531B78EB
:1051B000032B02D0062B75D0CAE0FB6803F58053A1
:1051C0000C331B68002B4CD0FB6803F58053042282
:1051D0001A70FB6803F58053023300221A70FB68D3
:1051E00003F58053033300221A70FB6803F58053E4
:1051F000043300221A70FB6803F580531A78FB68A9
:1052000003F5805305331A70FB6803F580530833A8
:105210001B68002B14D1FB681B78412B10D17B68D5
:10522000D3F81C329C69FB6803F58053103318686F
:10523000FB6803F5805301331A460021A04787E03D
:105240007B68D3F81C329C69FB6803F580531033EC
:105250001868FB6803F5805301331A460121A04703
:1052600076E0FB6803F5805305221A70FB6803F5AE
:105270008053023300221A70FB6803F58053033316
:1052800000221A70FB6803F58053043300221A7061
:10529000FB6803F580531A78FB6803F580530533E8
:1052A0001A7055E0FB6803F5805307331B78012B18
:1052B00020D1FB6803F5805307221A70FB6803F5C1
:1052C0008053023301221A70FB6803F580530333C5
:1052D00000221A70FB6803F58053043300221A7011
:1052E000FB6803F580531A78FB6803F58053053398
:1052F0001A702CE0FB6803F5805307331B78002BF2
:1053000025D11A4B1B7D03F00403002B1FD0FB6833
:1053100003F5805302221A70FB6803F580530233B1
:1053200000221A70FB6803F58053033300221A70C1
:10533000FB6803F58053043300221A70FB6803F501
:1053400080531A78FB6803F5805305331A7000BF49
:10535000FB6803F58053013306221946786801F093
:1053600007F800BF1437BD4690BD00BF3C000020C9
:1053700080B485B000AF78607B68D3F81832FB60EA
:10538000FB6803F580531B780A2B2CD1FB6803F5CF
:10539000805302221A70FB6803F580530133002208
:1053A0001A70FB6803F58053023300221A70FB6801
:1053B00003F58053033300221A70FB6803F5805312
:1053C000043300221A70FB6803F580531A78FB68D7
:1053D00003F5805305331A70FB6803F580530633D9
:1053E00000221A702BE0FB6803F580530A221A7022
:1053F000FB6803F5805301330E221A70FB6803F536
:105400008053023300221A70FB6803F58053033384
:1054100000221A70FB6803F58053043300221A70CF
:10542000FB6803F580531A78FB6803F58053053356
:105430001A70FB6803F58053063300221A7000BF10
:105440001437BD4680BC704780B584B000AF78602B
:105450007B68D3F81832FB60FB6803F580530122A8
:105460001946786800F084FF00BF1037BD4680BD44
:1054700080B485B000AF78607B68D3F81832FB60E9
:10548000FB6803F580531B78022B17D0FB6803F5EC
:1054900080531B78032B11D0FB6803F580531B78D6
:1054A000052B0BD0FB6803F580531B78062B05D02A
:1054B000FB6803F580531B78092B37D1FB6803F594
:1054C000805302221A70FB6803F5805301330022D7
:1054D0001A70FB6803F58053023300221A70FB68D0
:1054E00003F58053033300221A70FB6803F58053E1
:1054F000043300221A70FB6803F580531A78FB68A6
:1055000003F5805305331A70FB6803F580530633A7
:1055100000221A70FB6803F58053083300221A60DA
:10552000FB6803F580530C3300221A6000BF143768
:10553000BD4680BC7047000080B584B000AF786085
:105540007B68D3F81832FB60FB6803F580530733A0
:1055500000221A702A4B1B7D03F00403002B20D07D
:10556000FB6803F5805306221A70FB6803F580532D
:10557000023300221A70FB6803F5805303330022C4
:105580001A70FB6803F58053043300221A70FB681D
:1055900003F580531A78FB6803F5805305331A70BE
:1055A0002AE0FB6803F5805308221A70FB6803F5B4
:1055B0008053023300221A70FB6803F580530333D3
:1055C00000221A70FB6803F58053043300221A701E
:1055D000FB6803F580531A78FB6803F580530533A5
:1055E0001A70786800F05EF87B68D3F81C329B680C
:1055F0009847FFF799F8FEE71037BD4680BD00BF1A
:105600003C00002080B584B000AFF860B96013465C
:10561000FB71FB68002B01D102231AE0FB68D3F871
:105620001432002B03D0FB680022C3F81422BB689D
:10563000002B03D0FB68BA68C3F81022FB68012274
:1056400083F8FC21FB68FA791A70F86805F08CF988
:10565000002318461037BD4680BD80B485B000AF2A
:10566000786039600023FB733B68002B06D07B68B1
:105670003A68C3F814220023FB7301E00223FB7392
:10568000FB7B18461437BD4680BC704780B582B09E
:1056900000AF7860786805F0AFF900231846083746
:1056A000BD4680BD80B582B000AF78607B68D3F81E
:1056B00014325B687A685268D2B2114678689847AB
:1056C000786805F0CBF9002318460837BD4680BD41
:1056D00080B483B000AF7860002318460C37BD4615
:1056E00080BC704780B584B000AF78600B46FB701B
:1056F0000223FB737B68D3F81432002B0CD07B6839
:10570000D3F814321B68FA78114678689847034634
:10571000002B01D10023FB73FB7B18461037BD46DD
:1057200080BD80B582B000AF78600B46FB707B68AF
:10573000D3F814325B68FA781146786898470023EA
:1057400018460837BD4680BD80B582B000AF78608E
:1057500039607B6803F502733968184600F061FD13
:105760007B680122C3F8F4217B68B3F80E321A4635
:105770007B68C3F8F8217B6893F8083203F01F03B5
:10578000012B0BD0022B11D0002B17D17B6803F516
:1057900002731946786800F087F91AE07B6803F510
:1057A00002731946786800F0CFF912E07B6803F5C0
:1057B00002731946786800F0FAF90AE07B6893F8FA
:1057C000083223F07F03DBB21946786805F0B6F99A
:1057D00000BF002318460837BD4680BD80B586B09F
:1057E00000AFF8600B467A60FB72FB7A002B38D171
:1057F000FB6803F582737B61FB68D3F8F431032BFC
:1058000042D17B699A687B69DB689A4214D97B69CB
:105810009A687B69DB68D21A7B699A607B69DA686F
:105820007B699B68934228BF13469BB21A467968EE
:10583000F86800F0E9FD27E0FB68D3F814321B6933
:10584000002B0AD0FB6893F8FC31032B05D1FB68D1
:10585000D3F814321B69F8689847F86800F0E6FD41
:1058600012E0FB68D3F814329B69002B0CD0FB6864
:1058700093F8FC31032B07D1FB68D3F814329B69F2
:10588000FA7A1146F8689847002318461837BD463B
:1058900080BD80B586B000AFF8600B467A60FB72C1
:1058A000FB7A002B6CD1FB6814337B61FB68D3F867
:1058B000F431022B57D17B699A687B69DB689A4285
:1058C00015D97B699A687B69DB68D21A7B699A6013
:1058D0007B699B689BB21A467968F86800F064FDA2
:1058E000002300220021F86805F02AFA3BE07B69DA
:1058F0005B687A69D268B3FBF2F102FB01F29B1A92
:10590000002B1CD17B695A687B69DB689A4216D3ED
:105910007B695A68FB68D3F8F8319A420FD20022AB
:105920000021F86800F040FDFB680022C3F8F82170
:10593000002300220021F86805F002FA13E0FB685A
:10594000D3F81432DB68002B0AD0FB6893F8FC31E3
:10595000032B05D1FB68D3F81432DB68F86898474D
:10596000F86800F076FDFB6893F80032012B1AD13D
:10597000F868FFF7ADFEFB68002283F8002212E012
:10598000FB68D3F814325B69002B0CD0FB6893F8EA
:10599000FC31032B07D1FB68D3F814325B69FA7A28
:1059A0001146F8689847002318461837BD4680BD51
:1059B00080B582B000AF7860402300220021786873
:1059C00005F07EF87B684022C3F8102140230022B6
:1059D0008021786805F074F87B6840221A627B6841
:1059E000012283F8FC217B68D3F81832002B09D000
:1059F0007B68D3F814325B687A685268D2B2114679
:105A000078689847002318460837BD4680BD80B4A3
:105A100083B000AF78600B46FB707B68FA781A742D
:105A2000002318460C37BD4680BC704780B483B055
:105A300000AF78607B6893F8FC217B6883F8FD21D8
:105A40007B68042283F8FC21002318460C37BD46EE
:105A500080BC704780B483B000AF78607B6893F8F7
:105A6000FD217B6883F8FC21002318460C37BD46D6
:105A700080BC704780B582B000AF78607B6893F8D7
:105A8000FC31032B0BD17B68D3F81432DB69002B7C
:105A900005D07B68D3F81432DB6978689847002317
:105AA00018460837BD4680BD80B584B000AF786029
:105AB00039600023FB733B685B78092B39D801A25E
:105AC00052F823F0155B0008295B0008335B0008DF
:105AD0001F5B0008335B0008F75A0008ED5A000806
